{
  "contractName": "Tickets",
  "abi": [
    {
      "inputs": [],
      "stateMutability": "nonpayable",
      "type": "constructor"
    },
    {
      "inputs": [],
      "name": "owner",
      "outputs": [
        {
          "internalType": "address",
          "name": "",
          "type": "address"
        }
      ],
      "stateMutability": "view",
      "type": "function",
      "constant": true
    },
    {
      "inputs": [
        {
          "internalType": "uint256",
          "name": "",
          "type": "uint256"
        }
      ],
      "name": "tickets",
      "outputs": [
        {
          "internalType": "address",
          "name": "ID",
          "type": "address"
        },
        {
          "internalType": "uint256",
          "name": "price",
          "type": "uint256"
        }
      ],
      "stateMutability": "view",
      "type": "function",
      "constant": true
    },
    {
      "inputs": [
        {
          "internalType": "uint256",
          "name": "_index",
          "type": "uint256"
        }
      ],
      "name": "buyTicket",
      "outputs": [],
      "stateMutability": "payable",
      "type": "function",
      "payable": true
    }
  ],
  "bytecode": "0x6080604052336000806101000a81548173ffffffffffffffffffffffffffffffffffffffff021916908373ffffffffffffffffffffffffffffffffffffffff16021790555034801561005057600080fd5b5060005b600a8110156100f3576000600182600a8110610073576100726100f9565b5b6002020160000160006101000a81548173ffffffffffffffffffffffffffffffffffffffff021916908373ffffffffffffffffffffffffffffffffffffffff16021790555067016345785d8a0000600182600a81106100d5576100d46100f9565b5b600202016001018190555080806100eb90610161565b915050610054565b506101a9565b7f4e487b7100000000000000000000000000000000000000000000000000000000600052603260045260246000fd5b7f4e487b7100000000000000000000000000000000000000000000000000000000600052601160045260246000fd5b6000819050919050565b600061016c82610157565b91507fffffffffffffffffffffffffffffffffffffffffffffffffffffffffffffffff820361019e5761019d610128565b5b600182019050919050565b6103c0806101b86000396000f3fe6080604052600436106100345760003560e01c806350b447121461003957806367dd74ca146100775780638da5cb5b14610093575b600080fd5b34801561004557600080fd5b50610060600480360381019061005b919061029a565b6100be565b60405161006e929190610317565b60405180910390f35b610091600480360381019061008c919061029a565b610108565b005b34801561009f57600080fd5b506100a861023b565b6040516100b59190610340565b60405180910390f35b600181600a81106100ce57600080fd5b600202016000915090508060000160009054906101000a900473ffffffffffffffffffffffffffffffffffffffff16908060010154905082565b600a81108015610119575060008110155b61012257600080fd5b600073ffffffffffffffffffffffffffffffffffffffff16600182600a811061014e5761014d61035b565b5b6002020160000160009054906101000a900473ffffffffffffffffffffffffffffffffffffffff1673ffffffffffffffffffffffffffffffffffffffff161461019657600080fd5b600181600a81106101aa576101a961035b565b5b600202016001015434146101bd57600080fd5b33600182600a81106101d2576101d161035b565b5b6002020160000160006101000a81548173ffffffffffffffffffffffffffffffffffffffff021916908373ffffffffffffffffffffffffffffffffffffffff1602179055506000600182600a811061022d5761022c61035b565b5b600202016001018190555050565b60008054906101000a900473ffffffffffffffffffffffffffffffffffffffff1681565b600080fd5b6000819050919050565b61027781610264565b811461028257600080fd5b50565b6000813590506102948161026e565b92915050565b6000602082840312156102b0576102af61025f565b5b60006102be84828501610285565b91505092915050565b600073ffffffffffffffffffffffffffffffffffffffff82169050919050565b60006102f2826102c7565b9050919050565b610302816102e7565b82525050565b61031181610264565b82525050565b600060408201905061032c60008301856102f9565b6103396020830184610308565b9392505050565b600060208201905061035560008301846102f9565b92915050565b7f4e487b7100000000000000000000000000000000000000000000000000000000600052603260045260246000fdfea264697066735822122063507cc82b64a18a7b740f95f2763a44ae5b29b6062eae6e82cf7acca342d2f664736f6c634300080e0033",
  "immutableReferences": {},
  "source": "// SPDX-License-Identifier: GPL-3.0\r\n\r\npragma solidity >=0.8.14 <0.9.0;\r\n\r\ncontract Tickets {\r\n    address public owner = msg.sender;\r\n    uint constant TOTAL_TICKETS = 10;\r\n\r\n    struct Ticket{\r\n        address ID;\r\n        uint price;\r\n    }\r\n\r\n    Ticket[TOTAL_TICKETS] public tickets;\r\n\r\n    constructor() {\r\n        for(uint i = 0; i < TOTAL_TICKETS; i++) {\r\n            tickets[i].ID = address(0x00);\r\n            tickets[i].price = 1e17;\r\n        }\r\n    }\r\n\r\n    function buyTicket(uint _index) public payable {\r\n        require(_index < TOTAL_TICKETS && _index >= 0);\r\n        require(tickets[_index].ID == address(0x00));\r\n        require(msg.value == tickets[_index].price);\r\n        tickets[_index].ID = msg.sender;\r\n        tickets[_index].price = 0;\r\n    }\r\n}",
  "sourcePath": "C:\\Users\\Lenovo\\Desktop\\Web3_Projects\\New_sample_project\\contracts\\Tickets.sol",
  "compiler": {
    "name": "solc",
    "version": "0.8.14+commit.80d49f37.Emscripten.clang"
  },
  "schemaVersion": "3.4.7",
  "updatedAt": "2022-08-30T18:57:39.114Z",
  "networkType": "ethereum",
  "devdoc": {
    "kind": "dev",
    "methods": {},
    "version": 1
  },
  "userdoc": {
    "kind": "user",
    "methods": {},
    "version": 1
  }
}